:100000000C94E5000C9414010C9414010C9414014C
:100010000C9414010C9414010C9414010C9414010C
:100020000C9414010C9414010C9414010C941401FC
:100030000C9414010C9414010C9414010C941401EC
:100040000C9414010C9414010C9414010C941401DC
:100050000C9414010C9414010C9414010C941A06C1
:100060000C9414010C9464080C94F2080C94140180
:100070000C9414010C9414010C9414010C941401AC
:100080000C9414010C9414010C9414010C9414019C
:100090000C94A3080C9431090C9414010C94ED02F7
:1000A0000C9414010C9414010C9414010C9414017C
:1000B0000C9414010C9414010C9414010C9414016C
:1000C0000C9414010C9414010C9414010C9414015C
:1000D0000C9414010C9414010C9414010C9414014C
:1000E0000C9414010C9414010C9414010C949F04AE
:1000F0000C94AF040C9414010C9414010C9495040A
:100100000C9414010C9414010C9414010C9414011B
:100110000C9414010C9414010C9414010C9414010B
:1001200028072B071A071E07240762072F07330724
:1001300039073D07410747074B074F076207550738
:1001400059075D070000000B00090A0007050403BA
:10015000000000000000000000000000000102405C
:1001600020040810801080402008020102040810BA
:1001700020040102204005050505050505050202CC
:100180000202020206060606060602040404040031
:10019000000000250000002B002E0031003400007C
:1001A000000000000000000000000000002400002B
:1001B000002A002D00300033000000000000000085
:1001C00000000000FD01A202F10911241FBECFEFC3
:1001D000D1E4DEBFCDBF12E0A0E0B2E0E6EFF7E190
:1001E00000E00BBF02C007900D92AE35B107D9F702
:1001F00025E0AEE5B2E001C01D92AB31B207E1F7F8
:1002000011E0CAECD1E000E006C022970109FE012E
:100210000BBF0E94EC0BC43CD10780E00807A9F794
:100220000E94910A0C94F90B0C94000060E088E0A5
:100230000E949C0768EC70E080E090E00E948706D6
:1002400061E088E00C949C07CF93DF93C0E0D2E09C
:1002500061E088810E94630789E792E00E9498022A
:1002600040E855E260E070E087EE93E00E9470099C
:1002700060E088810E949C0761E088E00E9463073B
:1002800042E16EE572E081E792E00E942B0581E099
:1002900080935E0280935F0210926002109261026E
:1002A0001092620210926302109264021092650230
:1002B0001092660210926702109268021092690210
:1002C00010926A0210926B0210926D0210926C02F0
:1002D00010926F0210926E02DF91CF91089581E724
:1002E00092E00E944F05863009F07BC066E072E024
:1002F00087EE93E00E94DC0A4AE050E060915E02E3
:1003000087EE93E00E94710B6CE072E087EE93E061
:100310000E94DC0A4AE050E060915F0287EE93E0C1
:100320000E94710B60E172E087EE93E00E94DC0AAC
:10033000409160025091610260916202709163028B
:100340002AE030E087EE93E00E949E0B68E172E0C5
:1003500087EE93E00E94DC0A4091640250916502AE
:1003600060916602709167022AE030E087EE93E0C8
:100370000E949E0B6CE172E087EE93E00E94DC0A23
:10038000409168025091690260916A0270916B021B
:100390002AE030E087EE93E00E949E0B60E272E07C
:1003A00087EE93E00E94DC0A60916C0270916D020E
:1003B0004AE050E087EE93E00E94880B65E272E02D
:1003C00087EE93E00E94DC0A60916E0270916F02EA
:1003D0004AE050E087EE93E00E94880B0E941601ED
:1003E00006C06BE272E087EE93E00E94F90A64EFC8
:1003F00071E080E090E00C94870680E792E00C9436
:100400001E048091A80290E02091A902821B91090C
:1004100008952091A9028091A802281750F4E22F94
:10042000F0E0E655FD4F808190E02F5F2093A90218
:1004300008958FEF9FEF0895E091A9028091A8029F
:10044000E81730F4F0E0E655FD4F808190E0089524
:100450008FEF9FEF08950895CF92DF92EF92FF9272
:100460000F931F93CF93DF937C01CB018A012091DF
:100470008502222389F0EB016B01C40ED51ECC1539
:10048000DD0569F06991D701ED91FC910190F08152
:10049000E02DC7010995F3CF642F0E94C402C80163
:1004A000DF91CF911F910F91FF90EF90DF90CF9050
:1004B0000895CF93DF931F92CDB7DEB76983209164
:1004C00085022223D1F020918602203240F021E0E3
:1004D00030E0FC013383228380E090E015C08091FE
:1004E0008702E82FF0E0E857FD4F998190838F5FF6
:1004F000809387028093860205C061E0CE01019659
:100500000E94C40281E090E00F90DF91CF910895A6
:10051000FC011382128248EE53E060E070E04483F5
:1005200055836683778381E492E091838083089585
:100530001092A9021092A8021092870210928602CD
:100540000C94A60289E792E00C948802109237037B
:1005500081E0809335031092340361E085E10E94CD
:100560009C0761E086E10E949C07E9EBF0E0808156
:100570008E7F808380818D7F808388E48093B80024
:1005800085E48093BC000895613298F4209137038C
:10059000243089F46093EC02FC018EEE92E0DC01E1
:1005A0002A2F281B261718F421912D93F9CF80E0CC
:1005B000089581E0089582E0089585ED8093BC0060
:1005C0008091BC0084FDFCCF10923703089585EC28
:1005D0008093BC001092370308951F920F920FB6BC
:1005E0000F9211240BB60F922F933F934F935F936B
:1005F0006F937F938F939F93AF93BF93EF93FF93EB
:100600008091B900887F803609F49CC068F58832F3
:1006100009F45BC090F4803109F454C038F48823A5
:1006200009F4F5C0883009F44DC0F5C0883109F4EB
:100630004CC0803209F45DC0EEC0803409F468C05B
:1006400048F4803309F455C0883309F0E4C080933E
:10065000CA02A8C0803509F44FC0883509F45DC0CE
:10066000883409F0D8C0D5C0883909F4C6C0A8F4C8
:10067000883709F467C038F4883609F463C08037D6
:1006800009F460C0C8C0883809F4B7C0803909F4DB
:100690005FC0803809F0BFC05BC0803B09F485C0F3
:1006A00038F4803A09F466C0883A09F47EC0B3C0D1
:1006B000803C09F4A6C0883C09F4A3C0883B09F437
:1006C00089C0A9C08091360310C090910F0380911A
:1006D0000E03981770F5E0910F0381E08E0F809361
:1006E0000F03F0E0E05FFC4F80818093BB0085EC5E
:1006F00085C08093CA028DC0E0910F0381E08E0F08
:1007000080930F038091BB00F0E0E05FFC4F80839B
:1007100090910F0380910E036DC0E0910F0381E073
:100720008E0F80930F038091BB00F0E0E05FFC4FE1
:1007300080838091350381116CC081E08093340304
:1007400084EA60C083E0809337031092CB02CFCF5E
:100750008091CB02803208F050C0E091CB0281E062
:100760008E0F8093CB028091BB00F0E0E453FD4FED
:100770008083BDCF8091CB02803230F4E091CB02F8
:10078000F0E0E453FD4F10820E94DD026091CB0245
:1007900070E0E0913003F09131038CEC92E0099528
:1007A0001092CB020E94E70236C084E080933703A8
:1007B0001092ED021092EC02E0913203F0913303BB
:1007C00009958091EC02811105C081E08093EC02D3
:1007D0001092EE02E091ED0281E08E0F8093ED0227
:1007E000F0E0E251FD4F80818093BB009091ED02DB
:1007F0008091EC02981708F47ACF85E88093BC00CA
:100800000AC085EC8093BC001092370304C010929C
:10081000CA020E94DD02FF91EF91BF91AF919F91BB
:100820008F917F916F915F914F913F912F910F9099
:100830000BBE0F900FBE0F901F90189520E6FC0185
:1008400020830895E8E3F3E0119283E0E83BF807A2
:10085000D9F71092BA031092B9031092B80310920C
:10086000B7038091390181608093390110924E0164
:1008700080914201807E88608093420161E070E057
:1008800080E090E00E948706809141018F7188305E
:10089000B1F4809144018062809344018CE48093A0
:1008A0004E0180914801807E8B6080934801809149
:1008B0004201807E86608093420181E0089580E05D
:1008C00008958091B7039091B8032091B9033091B6
:1008D000BA0381589F4F821B930B6FE770E00E9411
:1008E000B00B08952091B7033091B8038091B903FC
:1008F0009091BA0328173907B1F0E091B903F0914C
:10090000BA03E85CFC4F20818091B9039091BA034F
:1009100001966FE770E00E94B00B9093BA0380934A
:10092000B903822F08958FEF08951F920F920FB68B
:100930000F9211240F900FBE0F901F9018951F92C9
:100940000F920FB60F9211248F93809146018093DE
:10095000BB038F910F900FBE0F901F9018951F92A1
:100960000F920FB60F9211240BB60F92EF92FF92D7
:100970000F931F932F933F934F935F936F937F93A7
:100980008F939F93AF93BF93EF93FF93CF93DF9397
:10099000CDB7DEB7CF57D109DEBFCDBF8091BB0346
:1009A0008770C9F1E0907B01F12C8E010F5F1F4F22
:1009B000A70160E871E0C8010E94F00B8091B703C5
:1009C0009091B80301966FE770E00E94B00BF801B8
:1009D00022E0E21AF1082FE730E04091B90350918C
:1009E000BA0384179507B9F0AF01401B510B4E15A0
:1009F0005F0588F4A091B703B091B8034191A85C5A
:100A0000BC4F4C939093B8038093B7030196B90100
:100A10000E94B00BE2CFC158DF4F0FB6F894DEBF93
:100A20000FBECDBFDF91CF91FF91EF91BF91AF91FD
:100A30009F918F917F916F915F914F913F912F91F6
:100A40001F910F91FF90EF900F900BBE0F900FBE74
:100A50000F901F901895EF92FF920F931F93CF93D3
:100A6000DF931F92CDB7DEB77C018B018BE049830A
:100A70000E942204F7011183008349814283842F5D
:100A800090E003960E949705F701948383830F906B
:100A9000DF91CF911F910F91FF90EF9008950F93E9
:100AA0001F93CF93DF93EC0161E08BE00E949C07E2
:100AB0001E820E946104892B81F112E001E00E94F4
:100AC00072044E81411104C0833249F50E83F7CF81
:100AD0002A81413041F4821719F01E8284E022C03D
:100AE0008F831E83ECCF30E02F5F3F4F50E0241701
:100AF000350734F41E829F81981799F085E012C063
:100B0000E881F981E40FF51F329780839F81982750
:100B10009F838E818F5F8E83D2CF80E003C082E07F
:100B200001C086E0DF91CF911F910F910895CF937F
:100B3000DF938230910510F482E090E0E091190596
:100B4000F0911A0520E030E0A0E0B0E0309739F1F4
:100B50004081518148175907B8F04817590771F477
:100B600082819381109729F013969C938E9312970C
:100B70002CC090931A058093190527C021153105C3
:100B800031F04217530718F0A901DB0101C0EF0152
:100B90009A01BD01DF010280F381E02DD7CF21153D
:100BA0003105F9F0281B390B2430310580F48A8196
:100BB0009B816115710521F0FB019383828304C041
:100BC00090931A0580931905FE0132962FC0FE01FD
:100BD000E20FF31F819391932250310939832883C7
:100BE00025C04DB75EB748575109E0910402F09116
:100BF0000502E417F507C0F44E1B5F0B48175907B1
:100C000098F09C012E5F3F4F4217530768F02E0F5C
:100C10003F1F309305022093040230930302209378
:100C200002028193919302C0E0E0F0E0CF01DF91F6
:100C3000CF9108951F920F920FB60F9211242F9308
:100C40003F938F939F93AF93BF938091BD039091F8
:100C5000BE03A091BF03B091C0033091BC0323E059
:100C6000230F2D3720F40196A11DB11D05C026E8E4
:100C7000230F0296A11DB11D2093BC038093BD03D9
:100C80009093BE03A093BF03B093C0038091C103B0
:100C90009091C203A091C303B091C4030196A11D1A
:100CA000B11D8093C1039093C203A093C303B0937B
:100CB000C403BF91AF919F918F913F912F910F905E
:100CC0000FBE0F901F9018953FB7F8948091C10305
:100CD0009091C203A091C303B091C40326B5A89B11
:100CE00005C02F3F19F00196A11DB11D3FBF66271A
:100CF000782F892F9A2F620F711D811D911D42E05F
:100D0000660F771F881F991F4A95D1F70895CF92D4
:100D1000DF92EF92FF92CF93DF936B017C010E94F1
:100D20006406EB01C114D104E104F10479F00E94DE
:100D300064066C1B7D0B683E7340A0F381E0C81A0B
:100D4000D108E108F108C851DC4FECCFDF91CF9119
:100D5000FF90EF90DF90CF900895789484B58260F3
:100D600084BD84B5816084BD85B5826085BD85B54F
:100D7000816085BDEEE6F0E0808181608083E1E8FE
:100D8000F0E0108280818260808380818160808336
:100D9000E0E8F0E0808181608083E1EBF0E0808139
:100DA00084608083E0EBF0E0808181608083E1E912
:100DB000F0E0808182608083808181608083E0E9CF
:100DC000F0E0808181608083E1EAF0E080818260F0
:100DD0008083808181608083E0EAF0E080818160AF
:100DE0008083E1E2F1E080818260808380818160A4
:100DF0008083E0E2F1E0808181608083EAE7F0E0D7
:100E00008081846080838081826080838081816032
:100E100080838081806880831092C100089590E073
:100E2000FC013197E231F10508F04CC0E057FF4F6B
:100E30000C94E60B809180008F7703C08091800036
:100E40008F7D80938000089580918000877FF9CF07
:100E500084B58F7702C084B58F7D84BD089580915D
:100E6000B0008F7703C08091B0008F7D8093B00079
:100E70000895809190008F7707C0809190008F7DBA
:100E800003C080919000877F8093900008958091A7
:100E9000A0008F7707C08091A0008F7D03C0809154
:100EA000A000877F8093A0000895809120018F7714
:100EB00007C0809120018F7D03C080912001877F32
:100EC000809320010895CF93DF9390E0FC01E35AD3
:100ED000FE4F2491FC01EA58FE4F8491882349F18A
:100EE00090E0880F991FFC01E755FE4FA591B49142
:100EF00081579E4FFC01C591D4919FB7611108C0E5
:100F0000F8948C91209582238C93888182230AC047
:100F1000623051F4F8948C91322F309583238C9366
:100F20008881822B888304C0F8948C91822B8C93C7
:100F30009FBFDF91CF9108950F931F93CF93DF93BE
:100F40001F92CDB7DEB7282F30E0F901EC5BFE4FE2
:100F50008491F901E35AFE4F1491F901EA58FE4FCA
:100F600004910023C9F0882321F069830E940F07B0
:100F70006981E02FF0E0EE0FFF1FE157FE4FA591D2
:100F8000B4919FB7F8948C91611103C0109581239F
:100F900001C0812B8C939FBF0F90DF91CF911F9148
:100FA0000F910895FC0124853585F901E05CFF4F20
:100FB00080819181329620813181821B930B8F73C6
:100FC00099270895FC0184859585FC01E05CFF4F1D
:100FD000408151813296208131814217530741F07F
:100FE0000190F081E02DE80FF91F808190E00895D5
:100FF0008FEF9FEF0895FC0184859585FC01E05CEF
:10100000FF4F408151813296208131814217530731
:1010100079F0A081B181A80FB91F8C912081318115
:101020002F5F3F4F2F7333273183208390E0089544
:101030008FEF9FEF0895FC0181A1882329F0A489F7
:10104000B5898C9186FFFBCF11A20895CF93DF93D2
:10105000FC0126853785D901A05CBF4F8D919C91FD
:10106000119701968F739927E901CE5BDF4F488175
:10107000598184179507D9F30D90BC91A02DA20F2B
:10108000B31F6C93A685B785A05CBF4F11969C9348
:101090008E93A689B7892C9181E090E0078C02C0DD
:1010A000880F991F0A94E2F7282B2C9381E081A3E3
:1010B0000488F589E02D80818064808381E090E060
:1010C000DF91CF91089508951F920F920FB60F925E
:1010D00011240BB60F922F933F934F938F939F93AF
:1010E000EF93FF938091C00082FD1CC04091C60029
:1010F000809115059091160501968F73992720917F
:101100001705309118058217930771F0E0911505C6
:10111000F0911605EB52FB4F408390931605809398
:10112000150502C08091C600FF91EF919F918F91AC
:101130004F913F912F910F900BBE0F900FBE0F90CC
:101140001F90189508951F920F920FB60F921124B9
:101150000BB60F922F933F934F938F939F93EF93E1
:10116000FF938091C80082FD1CC04091CE00809109
:101170008D0490918E0401968F73992720918F048E
:10118000309190048217930771F0E0918D04F091F3
:101190008E04E35BFB4F408390938E0480938D0419
:1011A00002C08091CE00FF91EF919F918F914F915E
:1011B0003F912F910F900BBE0F900FBE0F901F907D
:1011C000189587EE93E00E94D207892B11F00E94B8
:1011D000630885EC93E00E94D207892B11F00C94F0
:1011E000A20808951F920F920FB60F9211240BB60A
:1011F0000F922F933F938F939F93EF93FF932091A1
:10120000D1043091D2048091D3049091D404281752
:10121000390731F48091C1008F7D8093C10014C0E3
:10122000E091D304F091D404EF56FB4F20818091DC
:10123000D3049091D40401968F7399279093D4048A
:101240008093D3042093C600FF91EF919F918F91DB
:101250003F912F910F900BBE0F900FBE0F901F90DC
:1012600018951F920F920FB60F9211240BB60F9282
:101270002F933F938F939F93EF93FF932091490474
:1012800030914A0480914B0490914C0428173907FF
:1012900031F48091C9008F7D8093C90014C0E09122
:1012A0004B04F0914C04E75FFB4F208180914B048D
:1012B00090914C0401968F73992790934C048093DE
:1012C0004B042093CE00FF91EF919F918F913F911E
:1012D0002F910F900BBE0F900FBE0F901F9018957F
:1012E000CF92DF92EF92FF92CF93DF93EC016A01EE
:1012F0007B01411581EE580761057105F9F0EC8914
:10130000FD8981E090E008A002C0880F991F0A942F
:10131000E2F7808360E079E08DE390E0A701960139
:101320000E94C40B21503109410951095695479536
:1013300037952795211580E1380798F0EC89FD89CC
:10134000108260E874E88EE190E0A70196010E94A7
:10135000C40B2150310941095109569547953795DC
:101360002795E889F9893083EA89FB89208319A2C6
:10137000EE89FF89408181E090E09C010C8C02C0E5
:10138000220F331F0A94E2F7422B4083EE89FF8934
:1013900040819C010D8C02C0220F331F0A94E2F79A
:1013A000422B4083EE89FF8940819C010E8C02C054
:1013B000220F331F0A94E2F7422B4083EE89FF8904
:1013C00020810F8C02C0880F991F0A94E2F7809544
:1013D00082238083DF91CF91FF90EF90DF90CF90B9
:1013E00008951092EA031092E90388EE93E0A0E0DA
:1013F000B0E08093EB039093EC03A093ED03B093E4
:10140000EE0321E532E03093E8032093E70345ED56
:1014100054E05093F4034093F30341E954E05093B4
:10142000F6034093F50345EC50E05093F8034093E6
:10143000F70344EC50E05093FA034093F90340EC77
:1014400050E05093FC034093FB0341EC50E0509379
:10145000FE034093FD0342EC50E0509300044093A0
:10146000FF0346EC50E05093020440930104E4E093
:10147000E093030473E07093040467E06093050451
:1014800055E05093060441E0409307041092C803CE
:101490001092C7038093C9039093CA03A093CB0310
:1014A000B093CC033093C6032093C5038DE494E03E
:1014B0009093D2038093D10389E094E09093D40376
:1014C0008093D3038DEC90E09093D6038093D50363
:1014D0008CEC90E09093D8038093D70388EC90E055
:1014E0009093DA038093D90389EC90E09093DC0326
:1014F0008093DB038AEC90E09093DE038093DD031E
:101500008EEC90E09093E0038093DF03E093E1039F
:101510007093E2036093E3035093E4034093E50385
:1015200008950E94AD060E942401C1EED8E00E94F9
:101530006F012097E1F30E94E108F9CFCF92DF928B
:10154000EF92FF920F931F93CF93DF936C017A0179
:10155000EB01E60EF71E00E010E0CE15DF0561F0AE
:101560006991D601ED91FC910190F081E02DC601C9
:101570000995080F191FF1CFC801DF91CF911F9175
:101580000F91FF90EF90DF90CF9008956115710556
:1015900081F0DB010D900020E9F7AD0141505109C8
:1015A000461B570BDC01ED91FC910280F381E02D8D
:1015B000099480E090E008950C94C60ADC01ED9156
:1015C000FC910190F081E02D09940F931F93CF932C
:1015D000DF93EC016DE00E94DE0A8C016AE0CE012F
:1015E0000E94DE0A800F911FDF91CF911F910F9112
:1015F00008950F931F93CF93DF93EC010E94C60AC7
:101600008C01CE010E94E50A800F911FDF91CF91DE
:101610001F910F9108958F929F92AF92BF92CF9298
:10162000DF92EF92FF920F931F93CF93DF93CDB78B
:10163000DEB7A1970FB6F894DEBF0FBECDBF7C0119
:10164000C42EE52FCB01D22E19A221E02D1510F0CA
:101650002AE0D22E8E010F5D1F4F8D2C912CA12CD4
:10166000B12C6C2D7E2FA50194010E94C40B8C2DF2
:10167000D29E80191124015011098A3014F4805D22
:1016800001C0895CF80180832115310541055105B0
:1016900021F0C22EE32FCA01E4CFB801C7010E9496
:1016A000C60AA1960FB6F894DEBF0FBECDBFDF917C
:1016B000CF911F910F91FF90EF90DF90CF90BF904F
:1016C000AF909F908F9008952115310541F4DC0172
:1016D000ED91FC910190F081E02D642F09940C9420
:1016E0000B0B0F931F93CF93DF93EC019A01462FBF
:1016F00050E060E070E00E94640B8C01CE010E941B
:10170000E50A800F911FDF91CF911F910F910895EE
:101710000F931F93CF93DF93EC019A01AB0160E02D
:1017200070E00E94640B8C01CE010E94E50A800FDC
:10173000911FDF91CF911F910F9108950F931F93E8
:10174000CF93DF93EC010E94640B8C01CE010E94C9
:10175000E50A800F911FDF91CF911F910F9108959E
:10176000AA1BBB1B51E107C0AA1FBB1FA617B707C7
:1017700010F0A61BB70B881F991F5A95A9F78095E3
:101780009095BC01CD010895A1E21A2EAA1BBB1BA6
:10179000FD010DC0AA1FBB1FEE1FFF1FA217B3073D
:1017A000E407F50720F0A21BB30BE40BF50B661F53
:1017B000771F881F991F1A9469F760957095809517
:1017C00090959B01AC01BD01CF010895EE0FFF1F65
:1017D0000590F491E02D09940790F691E02D09947D
:1017E000FB01DC0102C001900D9241505040D8F73E
:0617F0000895F894FFCFFC
:1017F600070064001B055A6F6E613A0049443A00BF
:101806004C756D696E613A0049523A0055563A0078
:1018160048554D3A0054454D503A00496E76616C34
:10182600696420636865636B73756D6D0000000005
:101836000059022C02010209021C022B02000000C0
:0E1846000026089E0AD207FB07E2071B0800D7
:00000001FF
